:100000000C944A1B0C94C1240C949A240C94721BDB
:100010000C94721B0C94721B0C94721B0C94721B2C
:100020000C94721B0C94721B0C94721B0C94721B1C
:100030000C94721B0C9412260C9440250C94721B89
:100040000C9450240C94721B0C940E250C94E824F0
:100050000C94721B0C9461260C94721B0C94721BF2
:100060000C9471250C94721B0000000023002600E4
:1000700029000000000076A90800512D090004B9EC
:100080000900054D0A00D3E90A00F48F0B00F63F82
:100090000C0070FA0C0000C00D004F910E00116FA3
:1000A0000F00025A1000EC521100A35A12000872FD
:1000B00013000A9A1400A6D31500E91F1700ED7F5C
:1000C0001800E0F4190000801B009E221D0022DEB3
:1000D0001E0004B42000D8A5220046B5240010E478
:1000E0002600153429004DA72B00D23F2E00DAFF41
:1000F0003000C0E93300FFFF36003D453A0044BC04
:100100003D0008684100AF4B45008C6A490020C89B
:100110004D002A6852009C4E5700A47F5C00B4FF3B
:10012000610080D36700FFFF6D007B8A74008978CF
:100130007B0011D082005F978A0018D59200419011
:100140009B0053D0A400339DAE0046FFB80069FF6A
:10015000C30000A7CF00FDFFDB00F414E9000BF1A2
:10016000F60020A00501BE2E150130AA250182202F
:100170003701A6A04901663A5D018CFE7101D2FEED
:100180008701004E9F01FAFFB701F229D20120E258
:10019000ED0140400B027C5D2A024C544B020441AD
:1001A0006E024C419302CC74BA0228FDE302A4FD16
:1001B0000F03009C3E03F4FF6F03E453A40340C409
:1001C000DB0380801604F8BA540498A896040882C9
:1001D000DC049882260598E9740530FAC70548FBC7
:1001E0001F0600387D06E8FFDF06C8A7480780889D
:1001F000B70700012D08F075A90830512D0910042A
:10020000B90930054D0AA0D3E90AA0F48F0B00F616
:100210003F0CC06FFA0C70FFBF0D804E910EB010F6
:100220006F0FA0015A10E0EB521160A25A12200881
:100230007213600A9A1440A7D31540E81F1700EC08
:100240007F1880DFF419E0FE7F1B009D221D6021D6
:10025000DE1E4003B420C0D7A522C044B524401000
:10026000E426C0143429804EA72B80D23F2E00D81C
:10027000FF3000000000240027002A0000000000DA
:10028000250028002B0004040404040404040202D2
:100290000202020203030303030301020408102005
:1002A0004080010204081020010204081020000010
:1002B0000008000201000003040700000000000025
:1002C00000001912181415BB161117131A404020FC
:1002D000200804020277017E02580312065907140F
:1002E00008110A8410761B661C0D1D5A1E291F70EA
:1002F00020692172227A236B24732574266C27755A
:10030000287D29712A792C7B2D7C2E0F3F453016B4
:10031000311E32263325342E3536363D373E3846AB
:1003200039523A413B4E3C493D4A3E0E401C413217
:10033000422143234424452B463447334843493B19
:100340004A424B4B4C3A4D314E444F4D5015512D76
:10035000521B532C543C552A561D57225835591AB6
:100360005A4C5B5D5C545D5B5E555F618B0561065D
:100370006204630C6403650B6683670A680169099C
:100380006A786B076C086D106E186F2070287130DA
:1003900072387340744875507657775F786D605146
:1003A0009113926A9364946795F296F197639862B9
:1003B000995FA012BB7C041409110B1F0C270D2F91
:1003C0000E7E0F6C1169127D137A146B15741675FD
:1003D0001772187019711A5A2B4A2F4D79157A3BDA
:1003E0007B347C237D327E217F508048812B82406C
:1003F0008310843A853886308728882089188A3780
:100400008C3F8D5E900008202D3834383D363336D1
:100410003A35332E313A3F3D303137302C2B2E29AF
:10042000232C27202B2C2B28292E3F2B314229230C
:10043000122D3628221133421F171E1E1107FFF7F7
:10044000EFE2CEC7BBB3B4ACA7A39D98B0B5A9A447
:100450009C9A969896939191909191908F989CA840
:10046000B7BCBDC3D5D6D8DEDDD8DBE0E4EBE5EC28
:10047000ECE5E4E2E4E6E4E6E4E8E7D7DBDAE1EB46
:10048000ECF8F9FA0204000A0D131010201A1D20CE
:1004900021201F2322242C333336383E484845453B
:1004A000484F4F51514D5056524F4D494846423C8E
:1004B0003125180E04F3CDBDBFBBB8B4ACA7A9B0AD
:1004C000B5B5B5B8BBBABBB7B2B3B4B8B9C1C3C69A
:1004D000C9CCCED3D0CDDBEAF2F8FD01050610146D
:1004E000161B1E232A2C2D2C2F3C505D646666653E
:1004F00065676865636262625F594F4940342521D0
:100500002A303432312C2D27282E2D2623262B322B
:100510002F323633332F37433C383D3C3835302586
:100520001B100800F8ECE0D4CBC3BFBBB7B6B5B422
:10053000B4B2AFACACABAAA7A6A3A3A2A1A3A9B324
:10054000B9C1C8CED0D5DCDEE0E3DFE0E0DFDEDD40
:10055000DEDAD6D3DBE8F2FA00070C121D262A31C8
:100560003B4043464B4C4D515355555658575857A1
:1005700059575755545655514E4D4C494239322BC7
:10058000211B110C0F0D141B1A19221D1A1A1513F9
:10059000120F0604FFFCF9F4EAE5E7E5E1E1E1E129
:1005A000E6E7ECEFEFEFF0F2EEEAE7E6E3E6E7E3AB
:1005B000E5E4E5E9EFF2F3F5F5F7F7F8F5F5F5F62B
:1005C000F5F0EBEDEFEAE7E9F0F1F70206080D11BF
:1005D00017181C1C1E26282A2A2C2C2E2F303032AD
:1005E00036383937373635342F2C2B2623211D1733
:1005F0001415171310110F0C0B0A0B0C0B0B08051D
:100600000300FEFDF7EEE7DDD4CFCAC4BFB9B7B132
:10061000B0AEADAEAFB3B4B6B7BABABDBDBDBFBF75
:10062000C1C3C4C8C8C9CBCCCCCCCBCDD0D3D5D713
:10063000DADEDFE0E1E4E9ECF1F4F7FAFF01080EBD
:1006400013171C1F23282E3235383C3F4244494A99
:100650004C4D4D5053595A5C5A5655545454524F60
:100660004F4E4D48454947484146484845484C4DFE
:1006700050505251514F4F5053514F4B47433E38BA
:10068000322A221B140C06FFF8F0E7DFD7D0C8C4CB
:10069000C1BDB9B6B4B4B4B1B2B2B0AFAFB0B1B01D
:1006A000AEABADAAA8A5A8A6A1A3A1A0A0A09FA1FA
:1006B000A1A1A3A4A2A6ACB0B1B6BCC2CCD2D8DDD5
:1006C000E2E8EEF3F9FD0004090E13191C1F2224C1
:1006D000242727272829282B2C2C2B2B28292A2A8A
:1006E0002A28272A2C2F2F2E302F302F2E2C2B2844
:1006F0002D2F2B2B29282A292722211B17100B07E6
:1007000003FEF8F4F0E9E4DFDAD5D2CFCFCFCFCFD4
:10071000CFD0D0D2D4D5D7D8D8D9DADADBDADCDE6C
:10072000DEE0E2E2E4E5E4E3E1E0DFE1E1E2E2E3AE
:10073000E4E8E9EAEAE9EFF2F6F8FF03080E161B2F
:100740001E232A2D3034393E4347484C4F525456CD
:10075000585A5B5D5D5E5C5C5B5B5B5A58575655F7
:1007600054504F4D4B49484543413D3935302C2974
:10077000231D19140F090401FCF6EFE9E1DBD3CDC9
:10078000C6BFB7AFA9A39C95908D898785848381C7
:1007900081828383848789888B8E8F929596989B9C
:1007A0009EA1A5A8ACAEB3B7BABDC0C3C7CACCD0D2
:1007B000D3D6DADDE2E6EAEEF3F7FBFF03080C112D
:1007C00015191E21272B3034373A3B3F4144454809
:1007D0004B4B4B4B4D4F505050515253525353541F
:1007E000545455555556565555535252504F4E4CDC
:1007F0004A484642413D3A35312B26201B140E070C
:1008000002FDF6F0EAE4DED8D3CDC9C3C0BEBEBD5A
:10081000BCBCBEBDBEBFC2C2C4C5C6C7C6C8C9C9AE
:10082000C9CACBCCCED0D1D3D4D6D9DCDEE0E1E37B
:10083000E6E7E9E9EBEEEFF1F2F5F7FAFE00020682
:10084000090D101215171A1C1D1F2020212121200F
:100850001F1F1D1A1815120E0D0A0A080707060693
:100860000504030302020303010000FFFFFFFEFD76
:10087000FDFDFBFAF9FAFAF9F9F7F5F4F2EFEBE816
:10088000E5E2DEDAD7D3D0CDC9C7C4C2BFBDBBBB9A
:10089000BBBDBDBFC1C3C5C7CACCCECFD1D2D3D4D7
:1008A000D5D5D6D8D8D9DBDEDFE0E3E6E8E9ECEE53
:1008B000EFF2F6F9FCFF00010305080B0D11141807
:1008C0001C21262B3033373A3D3F424345474849A8
:1008D0004B4C4D4D4D4C4C4B4B4A49484747454579
:1008E00044434342413F3F3D3C3A38363331302D5B
:1008F0002A2724201E1B191614110E0B09050300AC
:10090000FFFBF7F2ECE8E3DFDAD6D2CDCBC8C5C106
:10091000BEBBB8B6B5B4B4B5B5B5B5B6B6B6B7B76F
:10092000B8B8B8B8B8B8B9B9BABABCBCBDBEBEC020
:10093000C0C2C2C3C4C4C5C6C6C7C9C9CACCCDCE4D
:10094000D2D4D8DBDFE4E7EBEFF4F7FAFD000206E0
:10095000080B0E1014161A1C1E20222324242524F2
:10096000252524252425252525252525242424233E
:1009700023222221201F1F1E1E1D1D1D1D1D1D1D8A
:100980001D1C1C1A191715120E0B070300FEFAF78F
:10099000F4F0EDEAE7E4E2E0DFDFE0E0E2E3E4E602
:1009A000E7E9E9EBECEEEEF0F1F2F3F4F5F6F6F749
:1009B000F9FAFAFCFDFEFEFFFF00FF000000000058
:1009C00000000202030506080A0D0F121417181B77
:1009D0001C1E1E202020202121212222232323230C
:1009E00022211F1D1B1A17151412100F0E0D0B0AB2
:1009F00008070605040302010000FFFFFDFBFAF9EA
:100A0000F7F6F4F3F1F0EEEDEBEAE8E7E5E2E0DD2E
:100A1000DBD8D6D4D2D0CECCCAC8C6C5C3C2C2C217
:100A2000C2C4C4C6C7C8C9CBCCCECFD0D2D2D3D40F
:100A3000D6D7D8D9DADBDDDFE0E2E3E4E5E5E6E7C7
:100A4000E7E8E9E9EAECEDEFF0F2F3F5F7F9FCFE9F
:100A50000003070A0D101215171A1C1E2123252743
:100A6000292A2B2D2D2E2E2E2E2D2D2D2C2B2B2AC3
:100A70002A292928272727272727282727272727FD
:100A80002626252424232322222121201F1E1D1C4B
:100A90001B19181613110F0C0A07050100FEFCF8AC
:100AA000F6F4F1F0EDEDEBEBEAEBEBEBECECECED6F
:100AB000EDEDEDECECECEBEBEAE9E8E8E8E7E8E794
:100AC000E6E5E4E3E2E1E0DFDFDDDDDCDCDBDBDB30
:100AD000DBDBDCDCDEDFE1E3E5E8EAECEEF0F2F4C0
:100AE000F5F7F8FAFBFCFDFF000001010303040425
:100AF000040404040505050606070808090A0A0C8B
:100B00000C0D0E0F0F101010111111111010100FED
:100B1000100F0F0E0E0D0D0B0A0907050200FFFD49
:100B2000FAF8F6F3F1EFECEAE8E6E5E4E3E3E3E410
:100B3000E5E7E8EAEBEDEDEFF0F1F1F2F2F3F3F4D3
:100B4000F4F4F4F5F5F6F6F7F7F8F8F9F9F9FAFA36
:100B5000FAFAFBFBFBFCFCFDFDFEFF0000030407B3
:100B6000090C0E11131516191A1B1D1D1F20212209
:100B70002324252526272727272727272626252517
:100B8000242423232222212121212021202120204D
:100B90001F1F1F1E1E1D1D1C1B1A181716141311B4
:100BA0000F0D0B08050200FEFBF7F5F1EEEBE8E593
:100BB000E2E0DDDBD9D8D6D6D5D6D5D6D6D6D6D6B0
:100BC000D6D6D6D6D6D7D7D7D8D8D9D9DADBDCDDA2
:100BD000DDDEDFDFE0E0E1E2E2E3E4E4E5E5E7E7F4
:100BE000E9EAECEDF0F2F4F7F9FCFF000203060786
:100BF000090A0C0D0F1011121314151515151515E2
:100C0000151515151515151515151515161617178E
:100C10001718181919191919191919191919191948
:100C200018181717161615141312110F0E0B0A08A1
:100C30000604020000FFFDFBFAF8F7F6F5F5F5F5FE
:100C4000F5F5F6F6F6F6F7F7F7F8F8F8F8F8F9F834
:100C5000F9F9F9F9F9F9FAF9FAF9FAF9F9F9F9F901
:100C6000F9F9F9F9F9F9FAFAFBFCFDFEFF000001C8
:100C700002040507080A0A0C0C0D0E0E0F0F1010C7
:100C8000111111111110100F0E0D0C0B0B0A090888
:100C90000807060605050404040404040404040308
:100CA000040303030202020201010100000000002C
:100CB00000FFFEFDFCFBFAF9F8F7F7F6F5F5F4F4A2
:100CC000F3F3F3F2F3F2F3F3F4F4F5F6F6F7F7F8DF
:100CD000F8F9F9F9FAF9FAFAFAFAFAFAFAFAFAFA7A
:100CE000FAFAFAFBFAFBFBFBFBFCFCFCFDFDFDFE4C
:100CF000FEFFFF00000001010303040506060708CC
:100D00000809090A0A0A0A0A0A0A0A0A0A0A0A0A47
:100D10000A0A0A0A0A090A0909090909090909093D
:100D20000909090909090808080808080707070741
:100D3000060606050505040404030302020101007A
:100D40000000000000FFFFFFFEFEFEFEFEFEFEFEB6
:100D5000FEFEFEFEFEFEFEFEFEFEFEFEFEFEFEFEB3
:100D6000FEFEFEFEFEFEFEFEFEFEFEFEFEFEFDFEA4
:100D7000FDFEFDFEFDFEFDFEFEFEFEFFFEFFFFFF93
:100D80000000000000000000000000000000000063
:100D90000000000000000000000000000000000053
:100DA0000000000000000000000000000000000043
:100DB0000000000000000000000000000000000033
:100DC0000000000000000000000000000000000023
:100DD0000000000000000000000000000000000013
:100DE0000000000000000000000000000000FDFD09
:100DF000FE00FC001004FC09201703F5EAF4EEF3F2
:100E0000EFEFFBFDFD000D13110900FCFB010014C9
:100E100012232BFDEAEEF8E3D4F3FBED0D4F221085
:100E2000F1B7A791E70E162139441D3D4820ECC5C6
:100E3000DDFE00021C314B421BCB929586828AE07C
:100E400043626C6E5212FECCAAD50A416A6B411500
:100E5000ECD1CFC8D2E5F40309FDE2C7AA9FB5E102
:100E60001C2F44565C4D423E02C9C9E3F912274982
:100E70004D13DEBAA0AAB6C300273F381800E3B26C
:100E8000A8CCF524404E554C3B09E2C8CCE50A2FCE
:100E900037331BF1DFDAB4B2C5C9EE284B4626065C
:100EA000E5C1BFCBCFF41A355E705C29FAD9CBDE31
:100EB000EEFB1522200AF5D6ADA9BFD8FD25312EAF
:100EC0002708F6EDE0D7D3FD20435F5C451FFFE325
:100ED000D8CDCAD4EA0A263213E0BAA5AFCBED10BA
:100EE0002D434C3B2805E1D0CFE50E314146402B48
:100EF0000FF3D1BBB8D2F20A1209FFF9E7CBD1D771
:100F0000D5EF153E5455341100E4D8DFF80F2032E8
:100F1000373622F8CCBFBBBED3F1070B0A08FFF26D
:100F2000E1DBED0014293941382411FBEBDDD6EC6F
:100F30000B22282D1FFFE5CDBDBAC4D6F616292CED
:100F400016FFEFE5E5EF09202E3C402D12FBE2DA1B
:100F5000E2F6020B14160E04F4DAC8BDC3DEFB0D74
:100F60001B221D120CFCEEF2FB08233F4638230423
:100F7000E2D3C8CBE4FB0D1C2116FBDAC3B8BDDA03
:100F8000FF1B313634332103EBE8ECFE0F1B28281E
:100F90002008F3E4D7CCD2E2FF1116170DFCE8DAF3
:100FA000D3D6E6011B313D3C2910F7DEDBECFC100B
:100FB00029322916FAE1D5C7C6D7F40D1B1C100239
:100FC000EDDDD6E2F6071C2D3536291700ECDFE102
:100FD000F30711191A0FFDE8DACBCBDCEE041C265F
:100FE000231706F1DEDAE0F40C203440341D04F15E
:100FF000E4E1E6ED000F141005F5E0CED4E6F201D1
:101000000B171D1C0E00F6E9E6F007253432271EEB
:101010000BF3E4DBD6DFF0FE0F180DFDEAE0DCDDBC
:10102000E7FB101D26291E0BF7EFF0EFF70516233F
:1010300028251700F2D8CBD4E6F500101A1301EDDD
:10104000E1DCD9E7001C2E322A1908FAEAE9F50298
:101050001221251E06F7E6D8D5D8E0EBFC0A151BB1
:101060001501F3E8E7F1FA0718292F2D2109F3E21A
:10107000DCE4FA0C191E190AF2DBCDCAD5EC041611
:101080001F1D1304F5EEEDF6010C1C2B2C200EFC9D
:10109000F0E7E4EAF8FE030D111206F4E3D7D3DD1E
:1010A000EF021623251E1002F6EDF0FA0513212497
:1010B0001F0CFDEDE0E0EEFC060B0705FBEFE8E49E
:1010C000E7EFFA030F1C201C1003FBF5F8FD040CDE
:1010D0001016191403F3E1DEDFE8F6000D16120313
:1010E000F5E6DEE3EE000D1C2425201402F7EEEDFC
:1010F000F4FF0C18160E01F4E9E5E4EAEFFA020F2A
:10110000150E03F7EDEBECFB0C1A21201B1002F778
:10111000F1F0F6FAFE060E0E0800F6ECE6E6EEFA40
:10112000030A0E0C0B05FBF1EDF0F9041423251E48
:101130001504F6EAE3E8F300070B0A04FDF5F1F104
:10114000EEF1FA0411130C03FDF9F9FC050B0E1373
:10115000120F0800F8EEE9EDF4FD04090C0802F89E
:10116000EDEBF0F4FC071115130D0900F6F4F5FD95
:10117000060D0F0C0901F8F2F5F9F7F5FA00050C68
:101180000801F9F3F4F7FF0406090B08090602FD4C
:10119000F8F8FF050A0D0D07FEF4EEEEEFF3FE037F
:1011A0000C0E0A01FFF9F4F3F6FA000A13151209FE
:1011B00000FAF8F8FD00020504040402FDF3ECE86F
:1011C000EFFC070E0E070000FCFEFDFE00040A12F5
:1011D000120C00F5F1F5FE0206070603FFF8F4F124
:1011E000F2F5FA0007090706040400FDFCFDFF0202
:1011F0000B0F0C0701FEFDFBF8F4F5FB00070904DB
:10120000FEF5F2F6FB0004070706090905FFFAF8E8
:10121000FC00040707040000FFFFFDF9FBFDFE00D2
:1012200000010100FEFBFEFDFE0004070A080400A9
:10123000FEFCFBFDFE000207080401FEF8F3F7FCCC
:101240000003000001020100FFFCFDFE000609088A
:1012500004020100FBFCFCFF010102020200FCF998
:10126000F7F7FB000308080601FFFCFDFE00000283
:10127000030403030200FDF9FAFDFE00030403006A
:10128000FFFEFEFCFCFD000106060601FFFDFAFC68
:101290000001040406050200FEFDFDFDFEFF000244
:1012A000020000FEFEFCFBFE00000202020202033E
:1012B0000000FFFDFF000405060300FDFCFEFFFF2C
:1012C000FFFF00000000FEFBFAFBFF02040405051F
:1012D000040300000000000000000100000000FC0A
:1012E000F9FAFCFF0102020000FF00000000000309
:1012F0000609090600FCFBFCFE00000000000000DF
:1013000000FFFCFCFDFF00000103030402020000DB
:10131000000000020201000000FEFCFBFCFF0103D4
:101320000200FFFDFDFF00000001020404020000B6
:10133000FF00000001000000000000FFFEFEFDFEB7
:10134000FF0000010202010000FF00000202030191
:101350000000000000FF000001020100FFFDFDFE93
:1013600000000101000000000000FF00000000017B
:1013700001010000000000FF00000000000000006C
:101380000000FFFFFF00000101000000000000005E
:101390000000000001000000FFFFFF00000000004F
:1013A000000000000000FF0000010001000000003C
:1013B000000000000000000000000000000000002D
:1013C000000000000000000000000000000000001D
:1013D000000000000000000000000000000000000D
:1013E00000000000000000000000000000000000FD
:1013F00000000000000000000000000000000000ED
:1014000000000000000000000000000000000000DC
:10141000000000000001EC16DC161CF0FDFEF60AD0
:10142000FFF819E244D5FC2503FC0225E508F3E0AA
:101430003EE10935F200FC43011E1C1A121F251063
:101440001E251B182BF322B93036CE0CE940000DB7
:10145000EDE215B7D516F4FCEE04DBEC15AF161271
:10146000E1EE0011E9E2FDF4FDF8F60D0231F80FAE
:1014700021D3F6D3F3E1F7FCF81D1713F92C37FF4E
:101480000A2408F806FAFB0DD0E411E1E1EFFBE9CC
:10149000CE00EC02F3E4F7EA00D90E2AD6040003EA
:1014A0000DE92414F10F01151CF8FA33FEE812F6C9
:1014B000FFF0ED1E07EEECF003D6DCF3EFD9F827D2
:1014C000FCF904F70202F3F92B0F09000B1EDC23D1
:1014D00020E8FCF5F605E3F10CF6EEE301E600EB9F
:1014E000E8F3E3FFF5F41DF8F10FF80D04F1370010
:1014F000E713F2F8E90BF1F2E5100002111903FC11
:1015000024FC18FA1415D61410FC090617F9FBF57B
:101510001BDB1607EC27E10C07DAF90EFCFE0B02C9
:101520000826E41310ED0F0300FEF0FBF9F50FFEA3
:101530000C24F1E21001F4F1F6F6FDF6E4EFF6EB1F
:10154000FA04E71EEC0100EA051800EE1EFDFD1688
:1015500000EB0C0D02FD14030019EA020013F10D5B
:1015600006FE32FC1120F90D190A18D90C17EC00EF
:101570000D02F502F0F800F2F9FA1000F602F50497
:101580000BEE051412001709F2091EE908FBF50617
:101590000004FC11FD1BFCFCFDF2FEF0F40EFFF25A
:1015A000000B0AED01E60000FA06E022F60310EF58
:1015B0000B0517F41A0D0121F8FFF72509E90EF5BF
:1015C00003FFEFF5F9110BFC20F8FA010CEC090B05
:1015D000F60405FCEE03F9F7F71EF102FBF3F6093A
:1015E00005F218020520FD0321FD09F21200F8F7AB
:1015F000ECF8F509DE0600FF13F5FAFFF90A07F922
:101600000C10010008F9FE01EB0B07F7FDEC02FEE0
:101610001FF40D050A000414FE000816F31203025D
:10162000FFFFF4FE00F807F208010108F10706FBCE
:1016300003FDFEF203FA0401FC0DEF1706F90D019C
:10164000F51400F60DFF00FA1FFE06FE020003135C
:10165000FCFBF9F9FCF7000DF919EE0BF6040EDFAF
:101660001FF1090D06130003FE00100A010AF9FF1D
:1016700009FB0803ED0708F2F702080B10F703FB5C
:10168000FA09F10609EE1302F000FA10F8F9050361
:10169000FAF3050205F1F7F602070206F808FAF870
:1016A0000DFE02FA00FF00050600FC1BEA0A050415
:1016B0000A0603FA0AF30EF30D04040BF0F8F90618
:1016C000FDFF0AFF02FFFDFEFA0400F402FAFD1519
:1016D000E50004F70000F7F5FBF3F9FB0008F5154A
:1016E000FEEE0EFFF8060309FF01F80B06F7F50002
:1016F0000DF40301FBF51500F80D00060500FE0AC8
:1017000000FA08F9140004FEF90EF20BFB0003EDD9
:1017100019F6FCF70301F704F8F9FEFAFC07FF01DC
:10172000FDF5F500F30AF2FC0CF90504F80602EFEA
:10173000000BFBFF02F006F700FDF612EE071DF3AB
:1017400000100FF511F30619EB02000700030C005F
:1017500000FA06F70305F4F901F7FD00F007F600BB
:1017600005F2F30102F9FFF7FC08F800FEFA02089F
:10177000ECFC11F606F9FD000207FCFB0403F31074
:10178000FB0105FF06FE080402F600FF06F709F656
:10179000F801FD00F3FFFEFAEF0301FFFB02F20484
:1017A00000F813EF0AF204FAFCFAFA03F100F3006E
:1017B000FBFBF60BF80304F1FDF8F9FBFCFC00FF62
:1017C000FD0101F90CFCFF10F80FF6FF03FDF80016
:1017D000FEFBFFFF00F5FCFA05FD00F9F70005FD33
:1017E0000405F9FDF6000000FD02FCFBFFF7FFFB1E
:1017F00005FF0001FA05F80002F800F500FEFF0100
:10180000F800FCF107F705FAF708F210FAFD02F903
:10181000F7F9FEFC00FDFD01FA02FE01FFFF0305E2
:10182000FE030105000608F201F700F903FEFEFFC2
:1018300000FFF7FAFDF9FEFC0700F900FAFFF7FBDD
:10184000F6FEF900F6FAF8FCFFF600F100FBFE00E8
:10185000F7FA0001F900F605F8FD05FB0000FAFEB5
:10186000FE000009FA000DF607FEFF000000FE0072
:1018700000F60104F5FFFFFCFBF804F6F8FCFFFAA4
:10188000FAF7F8FDFCF7FEFE07FCF900FFFB00008D
:10189000FA03FBF703FAFE03FE00FA04FCFB000068
:1018A000FB0600FE000000FD00F7FF06F30200F754
:1018B000FEFFFDFC06FB09FBFB00FA0100F60DF63E
:1018C000FE00F602FBFFFE0006FDFBFEFEFEF90039
:1018D000FFFC00F9060002FF0201F807FCFE00FB16
:1018E00005FBFFFFFA00FFFBFD08FBFE02FC020008
:1018F000FEFBFFFBF606FDFEFC02F9FB00FFF90212
:10190000FCFD02FCFF00FFFA00FEFF00FC00FCFDF6
:1019100001FC08FFF50000FCFB00FAFCFFFDFEFDEA
:10192000FDFFFE04F800FBFC05F90200FDFFFCFFD3
:1019300000FCFFFB0EFF0006FA08FA04FC0403FE9D
:101940000300FEFE00FFFF0AF80106F707FEFDFF99
:10195000FFFFFDFDFAFA00FFFFFCFEFFFCFFFDFEAE
:10196000FE00FFFD05FC00FF00000000000000007D
:101970000000000000000000000000000000000067
:10198000000000000000F0CD16653F32713098B3C2
:10199000DA96C900F80A330DE90ACDF7F6102BF9EB
:1019A0000600121000020802EDDFE9FF0F231E07F8
:1019B000E5E602F8031517FE00FFF8060704F3E555
:1019C000E8F3FF08121404FB03F90A000005FE0502
:1019D000000A0903010000FAEFF7FCFF0404070CFA
:1019E000080000FBF9000502050300FFFCFDFBFAFF
:1019F000FD000003080806020000FCFBFE010205D2
:101A000007030200FDFEFCFE0002060400FD0000CC
:101A1000000102010200FFFFFFFF000100010202BE
:101A20000000FDFDFF0001020303010100000000B2
:101A300000000000000000D498CB0E53541E403527
:101A40003027CD99CE150C0D1A130CE8B9BDC3EA99
:101A500022073E292D4A1A11D6EAFA0D0CF4E4E8C1
:101A6000FCC9D3F20A15192D270E0703E7EE030769
:101A7000060B0000F7EAE3E0E2F701061310241773
:101A80001006000EFBF800010B03FCEDEFF7F7006A
:101A90000A12120C0A0302FCFAF8F8FF040A00FC0E
:101AA000F9F9FF0808FFF70005080302FF0301002A
:101AB00001FD0000FE0001020306030100FDFDF828
:101AC000F9FE020706020000FE0004020001030501
:101AD0000100FDFE00000202010000FEFFFDFC000F
:101AE00000030403040401000000FEFEFDFEFF00ED
:101AF000010100000001020000F900C6EE1100F132
:101B00002357010A5D3E03ECD6C8BCA9F016505D10
:101B1000F9EADBF71E32F6F9BAD1E8D90EFE461D16
:101B200017152F4214F4EAE3CEDFDADEEBF1FE13F1
:101B30001A282307F706131A06F3F7F8FE00EEDC5F
:101B4000F200121E10010000F5030EFBF5FF00FB72
:101B5000FF02FD1406FB0000040105FF0200000265
:101B6000FDF6F5F8F8FF060E0C090901FDFDFDFA7A
:101B7000FD0401FCFE04040002060300FFFDF9F76A
:101B8000FB00000400010203090604000200FDFC42
:101B9000FE000001010000000001F2EAE001201354
:101BA000341BEB00F1B7E0220106092611011E00EB
:101BB00013F0E4DDDEDDD3E5E4172D200F17312A25
:101BC00019FAD0D1FB1C06E8E8E9000EFE00070F69
:101BD0001112F90415150BF61E10D7BCE30902FC0F
:101BE000FC1904F21505F5FFFD1C0F0D19F4E7CAE9
:101BF000CD09EF02242D271104131AF6D8C1BCD544
:101C0000EE06251500FD19101D0E162A02EFD1E76C
:101C100003F10B1B00F8CFFB060221FE211100008F
:101C20000D0802080004D4C9CCD0F300110E162808
:101C30003F270C00DFDDF40C10FBEFE9000DF1F5A0
:101C4000EDFA06FF120F050601192B1B00FAE0D36F
:101C5000EAE0FDFD07FB0F2404041916060A05F946
:101C6000DED6DFE7E307FFFB0E1F210D130B08FB9A
:101C70000D0500ECF6F4F60EEFEF00F6F81600E7AF
:101C8000F71015160DF3EDFEF1021106FBF5FCFB46
:101C9000150A00F8FCF70004F8FB061F13FBF0E838
:101CA000F4FCF3EEF4F20311112017FFF90F0C000E
:101CB0000700F0E3E1F0FD07111A1406FDE3E8E781
:101CC000F1F7FBFF0A1E030C10210EFC0001F4F1DA
:101CD000F1E5ED0003151100FEF6FAF0E7E6F2FE7D
:101CE00008091E29240F02EBF2F5DFF700040601B4
:101CF000F8F3F8FF12FD01F80000FDFE03170C09D0
:101D000002FCEAE7E9F800010D00040708100F08DB
:101D10000000F6E3E0D8E4F3FF080B1114141814E4
:101D20000E08FFFAECECE3EAF4FB030E00F90304FF
:101D3000040D08FC00FE080AFAF1EAEFF9FD0306BB
:101D4000080F0C0001F9FDFEFCFFF7FB00000C037F
:101D5000F9EFFE03FD0A0F04F9FDF9F1FA0401069B
:101D60000E05F8F0E6EE00030703090D04F0F4F7A2
:101D7000F9000003040A00F6F4000005040400F969
:101D8000FBF1EDFE010809080A03F9E9EFF4FB0095
:101D900004090C0BFAF4FDFD060400F6F8FAFB0446
:101DA000FCF3F8060D05030100F8F4EFE8F1F90083
:101DB000090B0C070F120700FDF6E9E7E9F2FC0733
:101DC0000C0D0B040803FBF9F9EF00000000FAFE0C
:101DD000FCFF030A0702FCF8EDF0F4FA000005002E
:101DE00006020000000101FCFC00FDFAF50000FF06
:101DF000FC060A00EFF900FDFE02FBF7F7F7FF0013
:101E000004000000060800FDFAF5F8FAF1F1F5FC0F
:101E1000FEFEFD000810120D00F9F6F400FDFCFDB9
:101E20000008FF0000F700020200F6F5F9F7F8F8E5
:101E3000F0FE00080E08040602000000FCF7F2ECB9
:101E4000ECEBF9FC04080F0C091003000200F6F596
:101E5000EEF3F5F3F2F8FE010B0A0000010201FEB9
:101E6000F5F5F900050100F9FD03040E0AFEFAFA82
:101E7000FEFFFCF8F9FDF8FDFFFF040102FF00047E
:101E80000200FEF7FA0000FF00FBF80001FF00006F
:101E9000F7F5F7FBFD00030606FFF9F1F5FD000776
:101EA00004FDFB0006060100FFF9FDF9F8FB010740
:101EB00004020000FCFEF9F7F9FB0003FFFEFF033C
:101EC0000502030503FFFBFAF5F7FDFAFB00FE0030
:101ED000FEF8F7F8FBFE020807020306050001FD05
:101EE000F8F6F6FBFCFF00F9FB000103070700FC16
:101EF000F7FDFFFD0202FFFC00FEFCFD00050102F4
:101F000000000000FDFFFFFCFDFF01FFFAFAFAFCF4
:101F1000FAF7F9FE000206080203060400FDF8F1D4
:101F2000F2F9FB00060200000000FDFAF9FAFBFCE2
:101F3000FF010408050305080400FCFAFEFEFCF896
:101F4000FBFDFD00010000FEFF0000000002FEFAA4
:101F5000FCFFFCFDFDFBFFFF00FDF8F4F8FC0104B5
:101F6000090D0B0B05070300FDFBF8F2EDECF5FD89
:101F700000050809080501FFFAF6F6FAFCFE000361
:101F80000808050501FFFDFBF9F9FBFD0003000052
:101F90000505070401FFFFFAF9F7F4F8FF02070946
:101FA00008060202010100FDFBF8F6F8FB00000143
:101FB0000508090602FF0000FDFDFCFEFE00000210
:101FC00006040100FEFAF8F4F7FC000306090B0909
:101FD0000404010000FEFCFCFCFBFD000002050502
:101FE00005050200FFFBF9FCFBFBFCFB0000020403
:101FF00007060402000201040202020000FEFEFEC7
:10200000FEFBFBFBF9FBFD00030509080B0A0803B7
:1020100000FCF7F3F3F6FD0104070A0C070400FEC9
:10202000FEFAFBFDFF00010202030603020100FFAE
:10203000FBFAFBFF02050605020303010202010091
:1020400000FF00000001040505020000010001027C
:102050000303010000FF0000000002050602020069
:10206000010000010000000000000001000001016B
:102070000000FEFEFE0002050606050200FEFBFA59
:10208000F9FAFBFF0105080909050100FF0000003E
:102090000103050505050404030201010201020014
:1020A0000000000103040301000100000000000023
:1020B0000000000000000204040503010000FCFA17
:1020C000F8FBFE010508090A080500FFFF000000F3
:1020D00003060807060404010000000100000103D4
:1020E00003000000000000000001010204050505D6
:1020F000040100000000FFFDFEFF000104040403D2
:10210000020000FFFF0001020302030303030202B7
:1021100001010000FFFF00000102030303020100B0
:1021200000000000000000000001000000000000AE
:10213000000000000000000000000000000000009F
:10214000000000000000000000000000000000008F
:1021500000000000E5E9D6E2F2E4D8D5EBF3F7F0B1
:10216000E6F503DBE6DCFB00E8D7E1DABCC5C3C972
:10217000DEEF05F3FC09FD07FD01FE01FBFCF8FFA6
:102180000705050100FDF8EDDCC6C8E0070F0AFCF5
:1021900000FCE8F2EE00F8F103F8F0F20D07FEEFB4
:1021A000F1CFBEC6C6D0D6E5F1F0F2F3EDF6E9F216
:1021B000E9ECEFE7EFE3E8E0E0DFDBD3D1CEC9C93C
:1021C000CDD5E4F9FE0717242626231A140312F9A5
:1021D000FDF3EFFCE9F4F0F0FD00F62C1B2B464478
:1021E00047383222170C04FBF4EAE4DDDCDEE2E5DA
:1021F000E6E5E2E0DDDCDADEDDE7ECEF0009FD1428
:10220000F3CED8CAD8D0E2D8E5EDEAECE6E4DFDCDC
:10221000D8D4CDCDC6C0C1C2C1C1C4C5C7CBCECF35
:10222000D9D6DEE5E3F1E1E7EBEEEBF2F7F9F8FA08
:10223000F7F8FE0410FD1B0008422B3026394748F2
:102240004E5453554D4E5644404545544A3D4543E2
:10225000423A382D273F291B29230F140F0D130550
:10226000040A0E0603090F1912051C1E181D1E1D57
:102270001310FC090DF7EBF3E2DAF2DDDDE4C6F64C
:10228000CFC2CAC7E7B0D1DCBACBCFC2CAC3C3D2B0
:10229000C6C5CDCCCDCCC9D5D9D7DCD9DAD8D5D720
:1022A000D5D4D5CECDCED1CED3D9DCDCE1E8E8ECA7
:1022B000F6F9F8010A020E0B06060A0E09060002DC
:1022C000101A1412253C312E412F36323741262662
:1022D000332F221F29282A2B2E28241F1C17140FC6
:1022E0000B080302FFFAF7F4F6EFF2F2EDF2F1ED6C
:1022F000F1EFF5F701FB080F040003E4E909E8D367
:10230000E7CAADB6B5B5AFC2B6AEC8C6C7BED3D9BB
:10231000DCD4D2D9DBDFE4E8EAE9E6E5ECEDDFF393
:10232000EDEDECF2F2EEF5F2F0EDEAEFECF4EE02A8
:10233000EDFAED051B222A09410E2E2346443C49A5
:102340004449274E484A4451474C4C44454746422D
:102350004C3E393C4439403D32404436353F3644AA
:10236000302B3E36213531222D2A322325222429B5
:102370002125242025231724261E20161D14051987
:10238000F914FAFD05EEF0E3F9F2D5D8F0ECD2D469
:10239000F1C8D3CACDCDD1DFC1DBC8C8C7B9CBBA6C
:1023A000CFD2BCCECBC0C6BDC7C7D2D4C1C0C9C4B2
:1023B000D0D5CDCFC6C7D6D3DCD4D7D8DBE3DADDD2
:1023C000D4DDDEE5DDE8E8FEFEE4F3EF01F5F0EC58
:1023D000FA130FFCF9180E16213C1A12352B43374D
:1023E0004935444B3F5444514F534E4D4545493E6A
:1023F00040413B3E36393129353025242A272122D8
:1024000027221E24241F1F191A1D1919171302171A
:10241000FF0AEDEB05DFE6DFCCCBECCEC6DFC5BFB8
:10242000C4C3BAB2BFC3BCB6C0BDC7CCC0BEC9D49A
:10243000CBCACBCCD3D1DBD1D7DEDFDAD6D1D1DD5D
:10244000DAD9E5DADAE5DDD5DFDDE1E3E1E1DEDCAD
:10245000E4E7D6ECE7E0FBF3DEF4F6E4FCF8FD0895
:10246000EA0B12FC06080914040A0E10191A1C00C3
:102470001B2D0F1E18282C203226171D1719292650
:102480001F140C2024241D1C1810380F2207002DA7
:102490001D0CF415290A0C0BFE180B0BE2000FEDB6
:1024A00001F5ECF5E5F2E2E1F3E2F0EEE2CFD1D8AE
:1024B000D9DBD8CBCFEACFD4CBCCE3CBD0C4D7D7E2
:1024C000C9C2D2CFC8C5CAD4CBCECFD1D0D8D8D428
:1024D000D4CEC7D1D1CED7CFD5D3CED4D3D4D6D6E0
:1024E000D8DADED4DCDAD2DCDDDBE1DCDDE4DFFA15
:1024F000E9E5E4F2ECF6FBF7F6F1FFDBFE13FE177D
:10250000000326051002172C08092F220F2A2F1965
:102510001618172138222C3108282F1F19152B26A1
:10252000172F0028000D29031E0014F10DFFFB07D3
:1025300005DCFA05EBDDFADDE5F8C7E0D6DBBEE643
:10254000C7DFE8CCDDC9DBC2D6E0CEC7D1CAD5D85B
:10255000C6D2CFD7EADDD8DBDBDBD5CFDDDAD2D10F
:10256000DEDAD3E3E0D8DEDFD9EAE6D8EBE2D4EC7A
:10257000EEDCDCE8EEE5F5E9EAE3FAE7E70AF7E99D
:10258000F0080103F8E10413FFF3ED001AFD080061
:10259000080B11000812EA1A180BFD07141A0CFA9E
:1025A00017FE12080209000608FA0F0507FDFBFCDA
:1025B000210DF516E906FC0102F7F9F0F40FEADD4A
:1025C00004ECEFF3EEEDF4E5FBE2D8FAD9FAE3D947
:1025D000ECE3D5DFDCE7E9DAE0CAE0F1D5CCE7D916
:1025E000E3E6CDE4E0CEDDD7E5E0D4FDD9CBD9DC20
:1025F000D1D1D4E3EBDFE3E6D0DCEFD4DEE2D1F0FF
:10260000EEDDF5E2FEEEDDE8D9F6F6DAFBE5E7FC15
:10261000E3FBF9F1E2FAF7E70000F901EF0104FF4B
:1026200001FE11F8FB0DFD0C0004FB061E1416F450
:10263000211FFBFC230D1206130FF62D06F80C0FBD
:10264000FA000CF221071112E91EEF11FBF600FB54
:1026500000FBEDF2F3F302DDF5D3F108DFE0EBE888
:10266000E3E1E3E5D3E3EFE7D4D6E3D6EAECDBD965
:10267000D8EBE4F0CDFCEFE1EBD6F1CCE3E7D9DA2F
:10268000F0F1D2E5E5DEDEE6E0D9F3F5DBEBE2D909
:10269000EBFEE6E6E8DFF6ECE8F9E600FADF04E850
:1026A000F905F6FDE0FEECEBF904020CF8EB05F79A
:1026B00008EE0A12E8FDEC020212EE16050718E217
:1026C0001708F2F4F809100008F9FF00EDF2080409
:1026D0000600F80F0B01FEF804FE03F0EF13EEF511
:1026E000F004E9F908D910E6FB00D801E7F8E0F4B6
:1026F000F5E80ACB10F2EDE8E2FECEE7FBECE300F2
:10270000E3DDDEF6F3F4E4E8E2D2FBEFE6EDE1E44C
:1027100000E4DFF7F3E2E1EFDA01F2E6F5D700E8F3
:10272000E9E0E6FAF8EAE6EEE1EAF500EEE9F8E9D2
:10273000F7F600F6F902DD18ED01F7F309E805F602
:1027400000E619F6F409F219060A0405FE0014045D
:10275000FA1512EE0310FD02F6191108FE030AF92C
:102760000B08020B02EE16FF04FDF101070C0AF53F
:10277000FBF5F905FA0CEDF6F7E5F305E711F3FBC8
:10278000EFDFF4DE10E701F5DC0CE3E4FDE1FBEC48
:10279000E8FDD4FAF0ECF5EBEEE5F1E9ECF1FDE85B
:1027A000E9FFEAEFE4FBF7E400EDF3DB11F8F5F8FD
:1027B000F1FDEDFCEA08FAE70002FAF7F214ECEB9F
:1027C00013F6FEFAEBFFFF021CF8FFF6F30E070DFF
:1027D000F20EEE06FAFC0DFD0CFE18FF0001000CD7
:1027E00004FA1107FA080407F805F71AFE060AFFAB
:1027F00000EA1D03FEF2F8FA00051105F50A03FAD6
:1028000008FA0AEEF10BFBFFFA00EDEB0BFF0000FC
:10281000F1F8F00FF40CEDEF13E1F8F8F707F00022
:10282000EFF905E006E9FF08F3F6F8FAF2EEFDFF2E
:10283000EFF9F7F2F6F5F314F4FAFFFDF0E604F51C
:10284000ED08FEF50EFA00EAFFFD11FDF5FCF805B6
:10285000FEFEEB1501F806EFF60C0915F1FC02007F
:102860000A17FC0400020E0308FC05FB130E14FEFD
:1028700012FB08090A040920F5FD0600071E0707D8
:102880000006070B1205FB170B07FDFA0B0E0505DB
:102890000A02F30204FDF9FC0CF80603F907030C25
:1028A00003F804F10A06F7FEE707FDF815EE02FE4D
:1028B000F9F0FB0AF2F5FAF71709E30AF806EBFA62
:1028C000090EF4F701FC00EE04F717F900F1F90224
:1028D000FB0200FFF6130A12F6070CF11DEC0B0BBE
:1028E000F11800F800000E11FE000EFA1317F8FFA1
:1028F000FF100819FF0A00011304050C0A0007FE67
:10290000130C0D0116FD061907000C15F9070C052F
:102910000417FD091B000CFEFE151C00FC1C08F82A
:102920000F0A04060700FB0A0AF7050AF70B12F85C
:10293000131300F9FE1208010103FC1902F5080047
:10294000F8050B0DFD020808F000070C0EFE05F857
:102950000DF415FB0C13F20CF90F00F40002F71440
:10296000070A09FB20F6FF0FFB080CFA0002FF160E
:102970001306010011050709FF1F02F71803010ED6
:10298000050EFF0E0D1904FC24001301160900109A
:102990000019030FFF04200B0B080A0A040C101285
:1029A000140C08091B0BFE12090B021308FD11077A
:1029B0000308150B0C00061D09FA0B0F000C0D0A7D
:1029C0000302010908080110030415FB0AFA0D119E
:1029D00002F9020B1303010707000710030B000B9A
:1029E00004080107080BFB0A0CFD0D030915020E74
:1029F00009001005FB1B06FF0E060F000602091258
:102A00000E0AFE0C06070B11030313110B00150E23
:102A100000100FFB17180102090C0B120A06160F03
:102A2000080A03140F00090D0613060E09082001F9
:102A3000060E05050C0E0F10000C120303110915EC
:102A40000B0F0FFB1EFE090D03080C0E0603020FF1
:102A500007090C0603120C0D07040708090F0505EA
:102A60001600041800000F000D090D0B00070B03E2
:102A700017000E10FA0E020A0D05050C04001D0CBD
:102A8000FE0907040F05050F060C040802091204CD
:102A9000030E030E110902050A15090C050717019B
:102AA0000C05100D040F1202070A06060513131277
:102AB00003110B04190309090014120D090A0A066F
:102AC000051206090A110A13020F120115FF150655
:102AD000030B05080A0C040F060A11041102100B5F
:102AE000070D021403040009080B1305080409006C
:102AF00007150706020E000B0E030B020804030D58
:102B00000B09090309080B0B0204060F0A01110344
:102B100009020F09050F0307030A0808010A0D0639
:102B20000F0C050D05050C08060C06020E0A060C16
:102B3000050F0A040D030906050C0A0809090B0E06
:102B40000B04020A0C0B0D05050A06090E040C10F5
:102B5000080B04080E0908060B0903060A050B0DED
:102B600005080C0903030A06060D0B020708050AEF
:102B700007070A050512000E0704080507010A03E6
:102B800009060909080B020A00090A0406020A05D7
:102B9000020C05050A040808040F03050A030904CA
:102BA0000805010A09050209020709000C09010AC2
:102BB0000A020A0607060608060902040A0C0209A8
:102BC00004030F04040207040A080807060A06099A
:102BD00004090208080705060504090908040A098A
:102BE0000404080604030808040C070807050A0083
:102BF000070C01040600090607060309010807027D
:102C00000506030408030702020806050407060078
:102C1000050604040209010906030602050406006C
:102C2000060403080505000409040602060402065A
:102C30000209040205030601030406000209060155
:102C40000505040503050207040205010408040341
:102C50000303080204060205040403060303070233
:102C60000401060604030307000403050503060127
:102C7000040602040103040404040504030202041C
:102C80000401030302020402040405020304000811
:102C9000000401020302040004020103020105040E
:102CA0000006010400030202030201010203020400
:102CB00000020402030004030101020301040202F2
:102CC00002030004020002010001030305000403E3
:102CD00001010104010300020102010203010102DA
:102CE00001010101030101020102010101010201CF
:102CF00002010101000202020001010102010102C0
:102D000000040101000003000101010200000101B3
:102D100001000101000100010000010001000100AB
:102D2000020000010000000100020001000001009B
:102D3000010001000000000100010000000000008F
:102D40000000000000000000000000000000000083
:102D50000000000000000000000000000000000073
:102D60000000000000000000000000000000000063
:102D70000000000000000000000000000000000053
:102D800000000000000000000000000000F6DFD599
:102D9000C8C0B3C0E4D6CDD2D0CDCDCBCBC9C8C787
:102DA000C5C4C1BFBCBAB8B6B3B0B3BDC5D0DEE907
:102DB000EDF9010A1721282D32373A3D3D3D413FBB
:102DC000413F3F3E3D4041413C362F27221C160FDC
:102DD00007FFF5EEE7DED6CABDB7B1B1B2B4B4B500
:102DE000B6B6B8B9BABABBBABBBABAB9B9B9B8B853
:102DF000B6B5B3B2B1B1BAC3CBD2DBE4ECF4F900EF
:102E0000080B12181F232C3235393C4244484A4BD8
:102E10004A4B4D4B4B4B4E4E4D4A49474543403F25
:102E20003D38312C25211C17130E0904FFF7EFE85C
:102E3000E0DAD4CCC3BDB7B3B1B1B3B4B5B6B7B7AC
:102E4000B7B8B9B9B9B9BABABABABABABAB9B9B8EF
:102E5000B8B8B8B7B7B6B5B4B2B2B0B5BAC0C6CCE8
:102E6000D2D7DEE3E7EEF4FB0003080E12191D22B1
:102E7000282B2F34373A3C3F414243454749494A82
:102E80004A4B4D4D4C4D4D4D4C4C4A494848474797
:102E9000464442403E3C393834312E2A26221E19FF
:102EA00014100C080400FCF7F3EEEAE5E1DCD8D4DA
:102EB000CFCAC6C2BDB8B4B2B0B1B2B3B4B5B5B67C
:102EC000B6B7B7B8B8B8B9B8B9B9B9BABABABABA78
:102ED000BAB9BAB9B9B9B9B9B8B8B8B7B7B7B6B66F
:102EE000B5B5B4B4B3B2B2B4B8BCC0C5C9CED2D60D
:102EF000DADEE3E6EAEEF3F7FBFE0104080B10135B
:102F0000171A1E2125282B2E313437393C3E4042DA
:102F1000444546474849494A4B4B4C4C4D4D4E4E13
:102F20004F4E4F4F4F4F4E4E4D4D4C4C4C4B4B4ACE
:102F30004949474645454342413F3E3C3A3836348D
:102F4000312E2C292623201D1A1714110E0B0804CC
:102F500001FFFCF9F5F2EFEBE8E5E1DEDAD7D3D0DB
:102F6000CCC9C5C2BFBBB9B6B4B3B1B1B2B2B3B3C9
:102F7000B4B4B5B5B6B6B7B7B7B8B7B8B8B8B9B9E5
:102F8000B9B9B9B9BAB9BABABABABABABABABABAA6
:102F9000BABABAB9BAB9B9B9B8B9B8B8B8B7B7B7A7
:102FA000B6B6B6B5B5B4B4B3B3B2B3B5B7BABDC0BF
:102FB000C3C7C9CDD0D3D7D9DDE0E3E6E9ECEFF262
:102FC000F5F8FBFE000205080A0E101315181A1D6D
:102FD0001F222427292C2E30333437383B3C3E3FE8
:102FE0004142444546474848494A4A4B4C4C4D4D5E
:102FF0004E4E4E4F4F4F50505051505151515151D4
:103000005050504F4F4F4E4E4D4D4C4C4B4B4A4AEB
:1030100049494847464544434241403E3D3B3A3892
:10302000363532312E2D2A282623211F1C1A181539
:1030300013100E0B0906040100FEFCF9F7F4F2EF81
:10304000ECEAE7E4E2DFDCDAD7D4D2CFCCCAC7C4FB
:10305000C2BFBCBAB7B5B4B2B2B1B1B2B2B3B3B415
:10306000B4B5B5B5B6B6B6B7B7B7B7B7B8B7B8B8F9
:10307000B8B8B9B8B9B9B9B9BAB9BABABABABABABC
:10308000BABBBABBBABBBABBBABABABABABABABA9C
:10309000BAB9BAB9B9B9B9B8B9B8B8B8B7B7B7B6AB
:1030A000B7B6B6B5B5B4B4B3B3B4B5B7B9BBBEC0B3
:1030B000C3C5C8CBCDD0D3D5D8DBDDE0E3E5E8EAA6
:1030C000EDEFF2F4F7F9FCFE00010406080B0D0F1A
:1030D000121416181B1C1F21232527292B2D2F31D5
:1030E000333536383A3B3D3E4041434445464748F8
:1030F00048494A4A4B4B4C4C4D4D4E4E4F4F505009
:1031000050505151515152515252525352535252A6
:10311000525151515050504F4F4E4E4E4D4D4C4CC0
:103120004B4B4A4A49484847464544434241403F41
:103130003E3C3B393836353331302D2C2A28262475
:1031400022201E1C1A181614120F0E0B0907050355
:103150000000FEFCFAF7F5F3F0EEECEAE7E6E3E157
:10316000DEDCDAD7D5D3D0CECCC9C7C5C3C0BFBC8F
:10317000BAB8B7B5B4B3B3B2B1B2B2B2B3B3B3B411
:10318000B4B4B4B5B4B5B5B5B5B6B5B6B6B6B6B7EC
:10319000B6B7B7B7B7B7B7B7B7B8B7B8B8B8B8B8BA
:1031A000B8B8B8B8B8B8B8B8B8B8B8B8B8B8B8B89F
:1031B000B8B8B7B8B7B7B7B7B7B6B7B6B6B6B6B5A3
:1031C000B5B5B5B4B5B4B4B4B5B6B7B8BABBBDBF90
:1031D000C1C3C5C7C9CBCED0D2D5D7D9DCDEE0E2DA
:1031E000E5E7E9EBEEEFF2F4F6F8FAFCFE00000397
:1031F0000407080B0C0F10131416181A1B1E1F219E
:1032000023242628292B2C2E2F31323435373839D8
:103210003B3B3D3D3F3F414142434344444545469E
:10322000464747474847484848494949494A494A1B
:103230004A4A4A4A4A4A4B4A4B4A4A4A49494949F0
:103240004848484747474646464545444443434225
:1032500042414140403F3E3E3C3C3B3A39383735A5
:10326000353332302F2D2C2A2927262423211F1EC7
:103270001C1A1917151412100F0C0B09070604025B
:103280000000FEFDFAF9F7F5F3F1EFEDECE9E8E601
:10329000E4E2E0DEDCDAD8D6D4D2D1CECDCBC9C7D9
:1032A000C6C4C3C1C0BFBEBCBCBABAB9B8B8B7B750
:1032B000B6B6B5B5B5B4B4B4B4B3B4B3B3B3B3B3CD
:1032C000B3B3B3B3B3B3B3B3B3B3B3B3B3B3B4B3CD
:1032D000B4B4B4B4B4B4B4B4B4B4B4B4B4B4B4B4AE
:1032E000B4B4B4B4B5B5B5B6B6B6B7B7B7B8B8B97F
:1032F000B9BABABBBCBDBEBFC0C1C2C4C5C7C8CACB
:10330000CBCDCFD1D2D5D6D8DADCDEE0E2E4E6E828
:10331000EAECEEEFF1F3F5F7F9FAFCFE0000010339
:10332000040608090B0D0E101213151618191B1C94
:103330001E1F212224252728292B2C2D2E30303208
:1033400033343536373838393A3A3B3C3C3D3D3EEC
:103350003E3F3F3F403F404040414141414142416B
:103360004242424242424243424343434342424238
:1033700041424141414040403F3F3F3E3E3E3D3D56
:103380003D3C3C3B3B3A3A393938383736363434B1
:10339000333231302F2E2D2B2A2927272524222185
:1033A000201E1D1B1A181716141311100E0D0B0AD0
:1033B0000807050402010000FEFDFBFAF8F7F5F32B
:1033C000F2F0EEEDEBE9E8E6E4E3E1DFDEDCDBD9A9
:1033D000D7D6D4D3D1D0CFCDCDCBCBC9C9C7C7C613
:1033E000C5C5C4C4C3C3C2C2C1C1C0C0BFBFBFBEC4
:1033F000BEBEBEBDBEBDBDBDBCBCBCBCBCBCBBBC02
:10340000BBBBBBBBBBBBBBBBBBBBBBBBBCBCBCBD07
:10341000BDBDBEBEBEBFBFC0C0C1C1C1C2C2C3C3AD
:10342000C4C4C5C5C6C7C7C9C9CACBCCCDCECFD009
:10343000D1D2D4D5D7D8DADBDDDEE0E1E3E5E6E8CA
:10344000EAEBEDEFF0F2F4F5F7F8FAFBFDFE000021
:103450000102040507080A0B0D0E0F1112131516B1
:1034600017191A1B1C1E1E20212223242527272959
:103470002A2B2C2D2E2F3030313232333434353547
:1034800036363737373838383938393939393A39BB
:103490003A3A3A3A3B3A3B3B3B3B3B3B3B3B3B3B81
:1034A0003B3B3B3B3A3A3A3A393A39393938383882
:1034B00037373736363635353534343333323231C3
:1034C0003130302F2E2E2C2C2B2A2928272625244C
:1034D0002322211F1F1D1C1B1A1818161514121148
:1034E000100E0D0C0A0A080706040302000000FE75
:1034F000FDFCFBF9F8F7F5F5F3F2F1EFEFEDECEB8E
:10350000EAE8E8E6E5E4E3E2E1E0E0DFDEDEDDDD97
:10351000DCDCDBDBDADADADADAD9DAD9D9D9D9D90B
:10352000D9D9D9D9D9D9D9D9D9D9D9D9D9D9DAD90A
:10353000DADADADADADADBDADBDBDBDBDCDBDCDCDF
:10354000DDDDDEDEDFDFDFE0E0E1E1E2E2E2E3E37A
:10355000E3E4E4E5E5E6E6E7E7E8E8E9E9EAEAEBFB
:10356000EBECECEDEDEEEFEFF0F1F1F2F3F4F4F55E
:10357000F6F6F8F8F9FAFAFBFBFCFDFDFEFFFF009A
:103580000000000000010102020303040405050518
:10359000060606070707080808090909090A090AAB
:1035A0000A0A0B0B0B0B0B0B0C0B0C0C0C0C0C0C66
:1035B0000C0C0C0C0C0C0C0C0C0C0C0C0C0C0C0C4B
:1035C0000C0C0C0C0B0C0B0B0B0B0B0B0B0B0A0B47
:1035D0000A0A0A0A0A0A090A090909090908090856
:1035E0000808080808070807070707070607060668
:1035F000060606050605050505040504040404037E
:103600000403030303030203020202020201020194
:1036100001010101010100010000000000000000A3
:10362000000000000000000000000000000000009A
:10363000000000000000000000000000000000008A
:10364000000000000000000000000000000000007A
:10365000000000000000000000000000000000006A
:10366000000000000000000000000000000000005A
:10367000000000000000000000000000000000004A
:10368000000000000000000000000000000000003A
:1036900000008A2811241FBECFEFD8E0DEBFCDBFC7
:1036A00011E0A0E0B1E0E2EDFDE602C005900D9270
:1036B000A039B107D9F725E0A0E9B1E001C01D921A
:1036C000A03BB207E1F71BE1CAE4DBE104C02197AC
:1036D000FE010E94E136C934D107C9F70E9433299F
:1036E0000C94E7360C9400008230D8F4E82FF0E018
:1036F000EE0FFF1FE55FFE4F2AE73FE13183208396
:10370000813041F0809169008C7F826080936900F4
:10371000E89A089580916900837F886080936900AA
:10372000E99A0895833081F028F4813099F082304D
:10373000A9F008958730A9F08830C9F08430B1F439
:10374000809180008F7D03C0809180008F7780936F
:103750008000089584B58F7784BD089584B58F7DEA
:10376000FBCF8091B0008F778093B0000895809157
:10377000B0008F7DF9CF1F93CF93DF93282F30E0D8
:10378000F901E255FD4F8491F901E656FD4FD491C0
:10379000F901EA57FD4FC491CC23A9F0162F8111EE
:1037A0000E94921BEC2FF0E0EE0FFF1FE458FD4F3C
:1037B000A591B4918FB7F894EC91111108C0D095F0
:1037C000DE23DC938FBFDF91CF911F910895DE2B15
:1037D000F8CFCF93DF9390E0FC01E656FD4F2491A4
:1037E0008A579D4FFC0184918823D1F090E0880F87
:1037F000991FFC01EE58FD4FA591B491FC01E458CE
:10380000FD4FC591D491623071F49FB7F8943C910B
:10381000822F809583238C93E8812E2B28839FBF52
:10382000DF91CF9108958FB7F894EC912E2B2C93C4
:103830008FBFF6CF0895AF92BF92CF92DF92EF92F3
:10384000FF920F931F93CF93DF936C017B018B014A
:10385000040F151FEB015E01AE18BF08C017D1079A
:1038600059F06991D601ED91FC910190F081E02D24
:10387000C6010995892B79F7C501DF91CF911F9179
:103880000F91FF90EF90DF90CF90BF90AF90089591
:10389000FC01538D448D252F30E0842F90E0821B56
:1038A000930B541710F0CF96089501970895FC01DB
:1038B000918D828D981761F0A28DAE0FBF2FB11D33
:1038C0005D968C91928D9F5F9F73928F90E008958B
:1038D0008FEF9FEF0895FC01918D828D981731F045
:1038E000828DE80FF11D858D90E008958FEF9FEF99
:1038F0000895FC01918D228D892F90E0805C9F4F6F
:10390000821B91098F739927089584E892E00E94A1
:10391000791C21E0892B09F420E0822F089580E0B2
:1039200090E0892B29F00E94851C81110C940000E5
:103930000895FC01A48DA80FB92FB11DA35ABF4F44
:103940002C91848D90E001968F739927848FA6899E
:10395000B7892C93A089B1898C91837080648C93F2
:10396000938D848D981306C00288F389E02D8081A1
:103970008F7D80830895EF92FF920F931F93CF93D3
:10398000DF93EC0181E0888F9B8D8C8D98131AC09A
:10399000E889F989808185FF15C09FB7F894EE8981
:1039A000FF896083E889F9898081837080648083DE
:1039B0009FBF81E090E0DF91CF911F910F91FF9029
:1039C000EF900895F62E0B8D10E00F5F1F4F0F73D1
:1039D0001127E02E8C8D8E110CC00FB607FCFACF8C
:1039E000E889F989808185FFF5CFCE010E94991C75
:1039F000F1CFEB8DEC0FFD2FF11DE35AFF4FF0825D
:103A00009FB7F8940B8FEA89FB8980818062CFCFC2
:103A1000682F84E892E00C94BB1CCF93DF93EC01F9
:103A2000888D8823B9F0AA89BB89E889F9898C91A6
:103A300085FD03C0808186FD0DC00FB607FCF7CF62
:103A40008C9185FFF2CF808185FFEDCFCE010E9462
:103A5000991CE9CFDF91CF91089584E08093B40160
:103A60008FEF8093B5011092D7011092D60110927A
:103A7000D80185EE8093BC00089582E08093B40164
:103A80008FEF8093B5011092D7018093D60181E02A
:103A90008093D80185EE8093BC00089585ED8093D6
:103AA000BC008091BC0084FDFCCF8091B401809368
:103AB000B3011092B4018091B301833011F40C94DE
:103AC0002D1D8091B301813011F40C943D1D08959A
:103AD000CF93DF931F92CDB7DEB7809127039091EC
:103AE00028038F3F9807F1F0FC01EF5DFC4F208128
:103AF00029830197909328038093270389818093DA
:103B0000000187FD0BC08091000187708064809365
:103B10007C0080917A00806480937A000F90DF911E
:103B2000CF9108958FEFEBCF8091000187FF04C004
:103B30000E94681D1092B20108951092A401109283
:103B4000A3011092A2011092A10110927902109289
:103B500078021092A00110926702109262021092F5
:103B60009F0108959091A4019F5F963008F090E026
:103B70002091A301291751F0E92FF0E0E756FE4FFD
:103B800080839093A40181E090E008958CEF9FEFF3
:103B90000895CF93DF9380939801809397011092BB
:103BA000A0011092960180919F01806C80939F01EB
:103BB0008091A20187FD0DC08091A20180FF09C004
:103BC0008091A1018093950180919F0180618093F4
:103BD0009F018091D901823009F441C0833061F4A2
:103BE000E99881E090E0880F991FFC01E55FFE4FA6
:103BF0008AE19CE191838083D091DA0161E08D2F8D
:103C00000E94BB1B61E08D2F0E94E91BC091D9016E
:103C100061E08C2F0E94BB1B61E08C2F0E94E91B8E
:103C200083E290E00197F1F760E08C2F0E94BB1BCC
:103C30008BEE90E00197F1F760E08D2F0E94BB1BA7
:103C400062E08C2F0E94E91B80E0C23021F08FEFF0
:103C5000C33009F481E0DF91CF910C94741BE89894
:103C600090E080E0C0CF9091A3018091A4018917DA
:103C700099F18091A20181608093A2018091A201BB
:103C800087FD2DC080919F0187FD29C01092A10161
:103C90002FEF3FEF9F5F963008F090E0E92FF0E0C4
:103CA000E756FE4F2F3F320771F4208130E09093AA
:103CB000A3018091A4018913EDCF822F0E94C91D19
:103CC00081E090E0089580818B3BB9F78091A1015C
:103CD0008F5F8093A101EBCF8EEF9FEF08958AE76E
:103CE0009FEF08950F931F93CF93DF93109183025B
:103CF00080918202181B17FD1C5F01E0133064F5F0
:103D000080917902A09178028A1B87FD885F8823C1
:103D100019F180917902A817F9F0AF5FA83008F087
:103D2000A0E0A0937802B0E0AA0FBB1FA859BD4F36
:103D3000CD91DC9111978D919C9192FDBFC02C2F5C
:103D4000CA3A20F08C2F815F823010F494FF0AC0B1
:103D5000DD27209709F0B4C0812FDF91CF911F910B
:103D60000F9108958091670295FF18C08068809335
:103D70006702D0E0C0E093FF1EC0FE01ED54FC4F8F
:103D8000E4912E130DC0CC54DC4FFE01C491D0E061
:103D90002097D1F480916702D82BDBCF8F77E7CFC4
:103DA0002296C235D10549F7D0E0C0E0F3CF229684
:103DB000CE3DD105C9F3FE01EB52FD4FE4912E1328
:103DC000F6CFCA52DD4FE1CF80916702FE01C430C9
:103DD000D10508F050C0ED59FD4F87FF04C0108297
:103DE000CBEBD0E02AC090819130D1F30083C23078
:103DF000D105D9F1C330D10579F182E09091620209
:103E0000292F2823A1F1209167028095892380938F
:103E100062022068209367028DEE0E94B21D8BEB38
:103E20000E94B21D809162020E94B21D8BEB0E9423
:103E3000B21D892B11F00E94331E809167029E01F2
:103E40002052310921343105B8F1CB38D105A1F127
:103E50008160809367029ECF84FF05C08F7E809330
:103E6000670284E0CBCF8061FACF81E0C7CF892B96
:103E700080936202D1CF3697E830F10560F4E353C6
:103E8000FD4FE49187FF05C0E095E823E0936702CA
:103E9000D4CFE82BFBCFFE01B097EB30F10568F6ED
:103EA0009091620291FF02C086FFC7CFEE53FD4F93
:103EB000E491CE2FD0E0C1CF8E7FCBCFC6E0D0E053
:103EC000CE0199278B3B910509F418CF892B09F472
:103ED00015CF809183028F5F84300CF080E0E82F53
:103EE000EE0FFF0BE658FD4FD183C0838093830212
:103EF0001F5F04CFCF92DF92EF92FF920F931F9339
:103F0000CF93DF9380919F0186FF74C08091A001C1
:103F10008F5F8093A0018091A0018A3048F48230A5
:103F200098F560E0813009F448C01092A001C4C047
:103F30008B3009F44EC0E8F18C30B9F780919701CD
:103F40008E3E69F0809197018E3F49F080919701F4
:103F50008093900180919F01826080939F01809166
:103F60009F018F7B80939F018091A20187FF3EC0BC
:103F70008091A2018F778093A20180919F0184FD9F
:103F8000D4CF0E94331ED1CFC0919801C1706C2F45
:103F90008091DA010E94BB1B80919601C80FC093EB
:103FA00096018091980190E095958795809398016E
:103FB00083C060919601609561708091DA01DF9114
:103FC000CF911F910F91FF90EF90DF90CF900C94C5
:103FD000BB1B62E08091DA01DF91CF911F910F91BD
:103FE000FF90EF90DF90CF900C94E91B8091A2019D
:103FF0008E7FC1CF2091DA0130E0F901E255FD4F0B
:104000008491F901E656FD4FD491F901EA57FD4F2D
:10401000C491CC2379F081110E94921BEC2FF0E027
:10402000EE0FFF1FE859FF4FA591B491EC91ED23DE
:1040300081E009F480E09FB7F89440915E025091CE
:104040005F0260916002709161029FBF00919101D7
:104050001091920120919301309194016A017B01AA
:10406000C01AD10AE20AF30A970186010B3F110533
:104070002105310520F01092A00110929801409383
:1040800091015093920160939301709394019091E8
:10409000A0019F5F9093A0019091A0019A30A8F495
:1040A000923028F5913009F040CF1092960180911E
:1040B0009F01806880939F01DF91CF911F910F91A5
:1040C000FF90EF90DF90CF9008959A3019F19B30D8
:1040D00009F02BCF809196018D3F48F18EEF0E9421
:1040E000C91D8091A20180688093A2011ECF90918A
:1040F0009601980F909396012091980130E03595A4
:1041000027952093980190E0811190E88091980183
:10411000892B4CCF9091960191709093960190913C
:1041200096018913C9CF8DEF80939601C5CF8091F9
:1041300098018E3F29F090919F019D7F90939F0160
:1041400090919F0194FF02C0803F70F090919F0179
:1041500092FD91C08E3E09F477C0E8F48A3A09F4E2
:104160007FC020F4882359F186E02CC0803E09F4FA
:104170007BC0813EC9F780919F0182FD1AC087E014
:104180008093950180919F01846080939F0180912D
:104190009F018F7D0CC08C3F09F44EC060F4803FBE
:1041A00019F781E08093950180919F01806280934F
:1041B0009F0180E007C08E3FA9F18F3FA9F60E94C2
:1041C0009D1D8CE081FF05C09091950191509093C9
:1041D000950190919501191614F482FF1EC09091DB
:1041E00079029F5F983008F090E0209178022917BB
:1041F000A1F020919801E92FF0E030E0EE0FFF1FD1
:10420000E859FD4F3183208340919F012081318106
:10421000342B3183208390937902807171F18091E6
:1042200097015DCF80919F0181FFC3CF8091900165
:104230008093970180E1C6CF1092950110929F0163
:104240001092A2018EE0BECF90919F0191FF0AC013
:10425000909190019E3E31F08093970184E1B2CF1E
:104260001092950184E0AECF81E08093950180911A
:104270009F0188609CCF82E0A5CF809195011816A0
:104280000CF453CE80919F01837C80939F01109208
:10429000950180919F018F7780939F0172CECF927D
:1042A000DF92EF92FF920F931F93DC014D915D918E
:1042B0006D917C9113971F960D911D912D913C91BD
:1042C00052970417150726073707F0F41A968C91B2
:1042D0001A97882309F43FC04D915D916D917C91AF
:1042E00013971B96CD90DD90ED90FC901E974C0D92
:1042F0005D1D6E1D7F1D401B510B620B730B4D939B
:104300005D936D937C9313974D915D916D917C912D
:1043100013971896ED91FC911997E60FF71F84916A
:1043200014964D915D916D917C9117970D911D9112
:104330002D913C911397400F511F621F731F4D9396
:104340005D936D937C9313971F910F91FF90EF9066
:10435000DF90CF90089580E0F7CF823081F128F48C
:10436000882359F08130D1F00895843009F45AC07F
:10437000B8F1853009F445C008958091A805909161
:10438000A905A091AA05B091AB0580939D059093D6
:104390009E05A0939F05B093A00508958091950573
:1043A00090919605A0919705B091980580938A0504
:1043B00090938B05A0938C05B0938D050895809103
:1043C000820590918305A0918405B0918505809325
:1043D000770590937805A0937905B0937A050895B1
:1043E00080916F0590917005A0917105B091720553
:1043F0008093640590936505A0936605B093670567
:10440000089580915C0590915D05A0915E05B09145
:104410005F058093510590935205A0935305B09387
:10442000540508958091490590914A05A0914B0546
:10443000B0914C0580933E0590933F05A0934005B5
:10444000B09341050895CF92DF92EF92FF92BC01A5
:1044500090E080E00E9490356B017C0120E030E527
:1044600040E155E40E94EF3420E030E540E155E4BE
:104470000E94473620E030E040E858E30E9447368B
:1044800020E030E040E857E40E9447360E94613562
:104490006093A1057093A2058093A3059093A40552
:1044A00020E030E843E455E4C701B6010E94EF3450
:1044B00020E030E843E455E40E94473620E030E055
:1044C00040E858E30E94473620E030E040E857E4F7
:1044D0000E9447360E94613560938E0570938F0568
:1044E000809390059093910520E030EA49EF54E4E1
:1044F000C701B6010E94EF3420E030EA49EF54E4EE
:104500000E94473620E030E040E858E30E944736FA
:1045100020E030E040E857E40E9447360E946135D1
:1045200060937B0570937C0580937D0590937E0559
:1045300020E030EE4DEA54E4C701B6010E94EF34AA
:1045400020E030EE4DEA54E40E94473620E030E0AF
:1045500040E858E30E94473620E030E040E857E466
:104560000E9447360E946135609368057093690523
:1045700080936A0590936B0520E030E846EC54E4A4
:10458000C701B6010E94EF3420E030E846EC54E465
:104590000E94473620E030E040E858E30E9447366A
:1045A00020E030E040E857E40E9447360E94613541
:1045B0006093550570935605809357059093580561
:1045C00020E030EA4DE155E4C701B6010E94EF3426
:1045D00020E030EA4DE155E40E94473620E030E02B
:1045E00040E858E30E94473620E030E040E857E4D6
:1045F0000E9447360E9461356093420570934305DF
:104600008093440590934505FF90EF90DF90CF9005
:104610000895FC0101900020E9F73197AF01481B94
:10462000590BBC0184E892E00C941B1C87E691E0D6
:104630000C9409238F929F92AF92BF920F931F9376
:10464000CF93DF93CDB7DEB7A1970FB6F894DEBF57
:104650000FBECDBF19A2423008F44AE08E010F5DB3
:104660001F4F842E912CB12CA12CA50194010E94E6
:104670004C34E62FB901CA01EA30F4F4E05DD80108
:10468000EE938D01232B242B252B79F790E080E0EE
:10469000109719F0CD010E940923A1960FB6F89446
:1046A000DEBF0FBECDBFDF91CF911F910F91BF90A5
:1046B000AF909F908F900895E95CE1CF4F925F9209
:1046C0006F927F928F929F92AF92BF92CF92DF9222
:1046D000EF92FF926B017C01AC019B010E94B4360A
:1046E0008823B1F08AE691E00E9409237C010E94B0
:1046F00016238E0D9F1DFF90EF90DF90CF90BF90FF
:10470000AF909F908F907F906F905F904F900895A3
:1047100046015701E894B7F82FEF3FEF4FE75FE707
:10472000C501B4010E94B43681110DC02FEF3FEFD7
:104730004FE75FE7C501B4010E94EA3418161CF484
:104740008EE691E0D1CF2FEF3FEF4FE75FE4C70157
:10475000B6010E94423618161CF482E791E0C4CFDD
:104760002FEF3FEF4FE75FECC701B6010E94EA343D
:1047700087FDF3CF20E030E0A901C701B6010E9418
:10478000EA34B12CA12C87FF08C08DE20E94081DDD
:104790005C01F7FAF094F7F8F0942AE037ED43EA79
:1047A0005BE3C701B6010E947E342B013C010E94ED
:1047B00061356B017C010E9490359B01AC01C30106
:1047C000B2010E947D342B013C014AE0C701B601D1
:1047D0000E941A237C01EA0CFB1C8EE20E94081D39
:1047E000E80EF91E20E030E040E251E4C301B201DE
:1047F0000E9447362B013C010E9461354B01B12CD0
:10480000A12C4AE0C501B4010E941A23E80EF91E4A
:10481000C501B4010E9490359B01AC01C301B201F6
:104820000E947D3420E030E040E251E40E944736AF
:104830000E94613590E080E04AE00E941A23E80E71
:10484000F91E55CFCF92DF92EF92FF92CF93DF9375
:104850006C01990FEE08FF08F7FE17C08DE20E9469
:10486000081DEC0166277727CB016C197D098E099D
:104870009F094AE00E941A238C0F9D1FDF91CF9160
:10488000FF90EF90DF90CF9008954AE0C701B60106
:10489000DF91CF91FF90EF90DF90CF900C941A238F
:1048A0001F920F920FB60F9211242F933F938F9365
:1048B0009F93AF93BF9380915E0290915F02A0910E
:1048C0006002B091610230915D0223E0230F2D3729
:1048D00058F50196A11DB11D20935D0280935E02E3
:1048E00090935F02A0936002B0936102809159029D
:1048F00090915A02A0915B02B0915C020196A11DB9
:10490000B11D8093590290935A02A0935B02B09319
:104910005C02BF91AF919F918F913F912F910F902A
:104920000FBE0F901F90189526E8230F0296A11D29
:10493000B11DD2CF1F920F920FB60F9211242F9359
:104940003F934F935F936F937F938F939F93AF9317
:10495000BF93EF93FF93E0910D01F0910E01099544
:10496000FF91EF91BF91AF919F918F917F916F9147
:104970005F914F913F912F910F900FBE0F901F901D
:1049800018951F920F920FB60F9211242F933F93F9
:104990004F935F936F937F938F939F93AF93BF9347
:1049A000EF93FF93E0910B01F0910C010995FF91BA
:1049B000EF91BF91AF919F918F917F916F915F9197
:1049C0004F913F912F910F900FBE0F901F90189510
:1049D0001F920F920FB60F9211242F933F934F9374
:1049E0005F936F937F938F939F93AF93BF93EF9357
:1049F000FF9384E892E00E94991CFF91EF91BF9190
:104A0000AF919F918F917F916F915F914F913F9166
:104A10002F910F900FBE0F901F9018951F920F921D
:104A20000FB60F9211242F938F939F93EF93FF93C1
:104A3000E0919402F09195028081E0919A02F091C8
:104A40009B0282FD1BC0908180919D028F5F8F73BE
:104A500020919E02821741F0E0919D02F0E0EC5718
:104A6000FD4F958F80939D02FF91EF919F918F91C4
:104A70002F910F900FBE0F901F9018958081F4CF4B
:104A800078941F920F920FB60F9211242F933F9399
:104A90004F935F936F937F938F939F93AF93BF9346
:104AA000CF93DF93EF93FF93CEE6D0E01882F0E050
:104AB000E0E00995F894888182608883FF91EF9106
:104AC000DF91CF91BF91AF919F918F917F916F9126
:104AD0005F914F913F912F910F900FBE0F901F90BC
:104AE00018951F920F920FB60F9211242F933F9398
:104AF0004F935F936F937F938F939F93AF93BF93E6
:104B0000EF93FF938091B900887F883209F44DC0FC
:104B100008F5803109F441C0B0F4882309F47FC05E
:104B20008830D9F1FF91EF91BF91AF919F918F9113
:104B30007F916F915F914F913F912F910F900FBE99
:104B40000F901F901895883181F1803259F780932A
:104B5000B50120C0803409F44DC0B0F48033B9F3FE
:104B6000883301F78093B50185EC8093BC00809178
:104B7000B4018093B3011092B4018091B3018330EA
:104B800029F50E942D1DCECF803541F18835D1F118
:104B9000883441F60E944E1DC5CF8091D801809384
:104BA000BB0085EC8093BC00BDCF9091D701809174
:104BB000D601981778F7E091D70181E08E0F8093A6
:104BC000D701F0E0EA54FE4F8081E9CF8091B30134
:104BD000813009F0A7CF0E943D1DA4CFE091D701FD
:104BE00081E08E0F8093D7018091BB00F0E0EA5402
:104BF000FE4F80839091D7018091D601981788F25B
:104C000085E8D0CFE091D70181E08E0F8093D70166
:104C10008091BB00F0E0EA54FE4F8083BBCF10923E
:104C2000B501B8CF1F920F920FB60F9211242F9398
:104C30003F938F939F93AF93BF93EF93FF93809195
:104C4000B10191E089278093B10181112DC080913C
:104C50002905E82FF0E0EE0FFF1FE75DFC4F2081F4
:104C600031818F5F80932905811118C080912B05B8
:104C7000892780932B0580912D0590912E05A09179
:104C80002F05B09130050196A11DB11D80932D0512
:104C900090932E05A0932F05B09330052C503F4FD5
:104CA0003093890020938800FF91EF91BF91AF91DD
:104CB0009F918F913F912F910F900FBE0F901F905A
:104CC00018951F920F920FB60F9211242F933F93B6
:104CD0004F935F936F937F938F939F93AF93BF9304
:104CE000EF93FF938091B201811119C080917A00F6
:104CF000806480937A0081E08093B201FF91EF910C
:104D0000BF91AF919F918F917F916F915F914F91E3
:104D10003F912F910F900FBE0F901F90189580918B
:104D2000780090917900E0910001EE0FFF0BEB55B8
:104D3000FE4F918380830E94681D1092B201DECFE6
:104D4000CF92DF92EF92FF920F931F93CF936B015D
:104D50007C010FE110E0C0E0D701C601002E04C0C5
:104D6000B695A795979587950A94D2F780FD1BC0B5
:104D700080E30E94081DCF3141F0C801837099275C
:104D8000892B19F480E20E94081DCF5F01501109A0
:104D9000C03211F7CF911F910F91FF90EF90DF90EC
:104DA000CF900C94162381E3E4CF0C9404348F92BB
:104DB0009F92AF92BF92CF92DF92EF92FF920F93AA
:104DC0001F93CF934B01CB010E94D526182FC4010E
:104DD00001960E94D526C82FC40102960E94D526AE
:104DE000C82EC40103960E94D526082F6C2F70E0B0
:104DF00090E080E0982F872F762F6627610F711D36
:104E0000811D911DD12CF12CE12C7601DD24CC24C7
:104E10006C0D7D1D8E1D9F1D10E030E020E0302FB9
:104E2000222711270027600F711F821F931FCF9128
:104E30001F910F91FF90EF90DF90CF90BF90AF90B8
:104E40009F908F9008954F925F926F927F92AF9252
:104E5000BF92CF92DF92EF92FF920F931F93CF9367
:104E6000DF9394E3899F7001112427010F2C000C1C
:104E700066087708E4E04E0E511C611C711C9DE031
:104E8000C92E92E0D92EFDE08F9FE0011124CC0FB6
:104E9000DD1FCC0FDD1F05E212E0CE0185529240EE
:104EA0005C01C951D240C301B2016450710981094A
:104EB00091090E94D726F8016083718382839383CE
:104EC000C301B2010E94D726F601619371938193C9
:104ED00091936F01C501800F911F0E94222486E7E4
:104EE00091E00E940923F8016081718182819381A0
:104EF0000E94A026CE01800F911F0E94222486E7E7
:104F000091E00E940923F6013497608171818281CA
:104F100093810E94A0260E9416230C5F1F4FF8E089
:104F20004F0E511C611C711C82E00D33180709F0F3
:104F3000BACFB701605D7F4F072E000C880B990B2D
:104F40000E94D72670930A0160930901C701C29697
:104F50000E94D526809308018BE791E00E940923E7
:104F6000DF91CF911F910F91FF90EF90DF90CF9045
:104F7000BF90AF907F906F905F904F900C941623EE
:104F8000CF92DF92EF92FF92CF93DF93EC016A0111
:104F90007B01642F0E940C349927F7FC9A958F2D82
:104FA0007E2D6D2DCE0101960E940C34B7019927FC
:104FB00077FD9095892FCE0102960E940C346F2DBB
:104FC000772788279927CE010396DF91CF91FF900D
:104FD000EF90DF90CF900C940C34AF92BF92CF92B1
:104FE000DF92EF92FF920F931F93CF93DF9394E39F
:104FF000899F7001112405E212E0E7018DE0C82EBF
:1050000082E0D82EF80141915191619171918F0107
:10501000CE010E94C027F601419151916191719199
:105020006F015E01F4E0AF0EB11CC5010E94C02704
:10503000CE010E94222486E791E00E940923F80114
:10504000349760817181828193810E94A026C5017D
:105050000E94222486E791E00E940923F6013497FA
:1050600060817181828193810E94A0260E94162313
:10507000289682E00D33180729F68701005D1F4F3F
:105080004091090150910A0170E060E0C8010E945E
:10509000C027D090080192E3E90EF11CC7010E94DD
:1050A0000434D81621F06D2DC7010E940C34C801BC
:1050B0000E94222486E791E00E9409236091090161
:1050C00070910A0190E080E04AE00E941A230E9459
:1050D0001623C7010E94222486E791E00E9409233B
:1050E0006091080170E090E080E04AE00E941A239D
:1050F0000E9416238BE791E00E940923DF91CF9154
:105100001F910F91FF90EF90DF90CF90BF90AF90E5
:105110000C941623E4E8F2E01382128288EE93E006
:10512000A0E0B0E084839583A683B78389E591E00E
:105130009183808385EC90E09587848784EC90E070
:105140009787868780EC90E0918B808B81EC90E054
:10515000938B828B82EC90E0958B848B86EC90E035
:10516000978B868B118E128E138E148E10922905BA
:1051700010922A0510922B0510922C058FEF9FEFAD
:105180009093280380932703EDE9F5E08CE89DE2F6
:105190009187808780E090E0A5E0B9E08787908BD9
:1051A000A18BB28B1286EAE8F5E083E591E2918764
:1051B000808780E090E0A8E3BCE08787908BA18B9C
:1051C000B28B1286E7E7F5E085E899E19187808761
:1051D00080E090E0ADECB7E08787908BA18BB28B3D
:1051E0001286E4E6F5E085E194E19187808780E02E
:1051F00090E0AFE6B5E08787908BA18BB28B1286EB
:10520000E1E5F5E080EE9DE09187808780E090E029
:10521000A4E3B6E08787908BA18BB28B1286EEE376
:10522000F5E085E094E09187808780E090E0AAED4A
:10523000B9E08787908BA18BB28B1286E2E3F5E011
:105240008FE692E1A3E8B1E480879187A287B387D4
:1052500014821582168217828091310591E0892788
:10526000809331050895CF93DF93CDB7DEB768976C
:105270000FB6F894DEBF0FBECDBF789484B58260C0
:1052800084BD84B5816084BD85B5826085BD85B5EA
:10529000816085BD80916E00816080936E00109268
:1052A00081008091810082608093810080918100E3
:1052B0008160809381008091800081608093800074
:1052C0008091B10084608093B1008091B0008160D2
:1052D0008093B00080917A00846080937A008091FE
:1052E0007A00826080937A0080917A008160809356
:1052F0007A0080917A00806880937A001092C100D1
:105300000E949D1D84E08093DA0183E08093D9019F
:1053100062E00E94E91B62E084E00E94E91B81E0F8
:105320000E94741BE0919402F091950282E08083C8
:10533000E0919002F09191021082E0919202F0913E
:1053400093028FEC808310929C02E0919802F0917E
:10535000990286E08083E0919602F0919702808125
:1053600080618083E0919602F0919702808188604D
:105370008083E0919602F09197028081806880831B
:10538000E0919602F091970280818F7D808380E08A
:1053900090E0A1E0B0E08093A1059093A205A093D6
:1053A000A305B093A40580938E0590938F05A093D9
:1053B0009005B093910580937B0590937C05A09315
:1053C0007D05B0937E058093680590936905A09351
:1053D0006A05B0936B054FEF5FEF60E070E04093BC
:1053E0005505509356056093570570935805809363
:1053F000420590934305A0934405B093450561E0B1
:1054000081E10E94E91B61E082E10E94E91B61E009
:1054100083E10E94E91B80917A00886080937A0082
:1054200090E080E061E070E020917E00AB01082E0A
:1054300001C0440F0A94EAF7242B20937E000196C2
:105440008630910589F780917A00846080937A0094
:1054500080917A008D7F80937A0080917A008E7F90
:1054600080937A0084E090E09093560280935502F6
:1054700080918000809181008091880090918900C6
:1054800080916F0061E089E00E94E91B1092E001C9
:1054900098E19093E10182E08093E2019093810092
:1054A0008093800088EE91E0A0E0B0E088248394AF
:1054B0008092DD019093DC018093DB019093870063
:1054C0008093860089E18093810061E089E00E94F9
:1054D000E91B809180009091E201892B8068809384
:1054E00080002091DB013091DC01A4EFB0E00E944C
:1054F0006E34BAE09695879577956795BA95D1F70A
:1055000070938900609388008091E1019091DD01A2
:10551000892B8093810080926F0085E491E05C018B
:10552000A094B094BA8AA98A90912A0580912905FD
:10553000981306C090912C0580912B059813F2C208
:105540008091570290915802009711F00C945433B7
:105550008091550290915602909358028093570281
:105560000E94721E8823B1F10E94721E882309F4E2
:10557000F8C2E0918202EF5FE43008F0E0E0E093EF
:105580008202F0E0EE0FFF1FE658FD4F008111810F
:105590001A8309830731114009F0D1C260910901D2
:1055A00070910A016B30710508F4DDC26550710914
:1055B00070930A016093090190E080E00E949035A9
:1055C0009B01AC0160E070E080E798E40E94EF345A
:1055D0000E945E2320915302309154022F5F3F4F6F
:1055E00030935402209353028091090190910A0153
:1055F000AC01569547955695479524173507E0F029
:1056000021E02093520210925402109253022091F2
:105610005102222331F01092510210925002109246
:105620004F0220914E022F5F20934E0230910801CD
:10563000321710F410924E0220914C0230914D021C
:105640002F5F3F4F43E0969587954A95E1F72817DE
:10565000390708F0B5C730934D0220934C02809172
:10566000490290914A0280360AEE900708F0BFC7BF
:10567000019690934A0280934902809148028823C0
:1056800029F18091070191E0811190E09093070149
:10569000811116C06091490270914A0270930A010B
:1056A0006093090190E080E00E9490359B01AC017D
:1056B00060E070E080E798E40E94EF340E945E238F
:1056C00010924A02109249021092480280914F02B1
:1056D000909150029C012F5F3F4F309350022093D6
:1056E0004F02209146023091470282179307A8F09B
:1056F0001092500210924F0280914502882369F067
:1057000080914402E82FF0E0E25CFD4F909131057A
:10571000990F9F5F90830E94AD2180915202882350
:1057200009F4ABC01092520280913D02882309F423
:10573000A4C080914E02282F30E03A83298341E0B3
:1057400050E060E070E004C0440F551F661F771FF3
:105750008A95D2F74D875E876F87788B6091490570
:1057600070914A0580914B0590914C0569877A8725
:105770008B879C8780916F0590917005A091710532
:10578000B09172058D8B9E8BAF8BB88F8090820508
:1057900090908305A0908405B09085058D829E82AF
:1057A000AF82B886C0909505D0909605E090970599
:1057B000F09098054091A8055091A9056091AA051F
:1057C0007091AB0540905C0550905D0560905E0562
:1057D00070905F0505E212E01C8B0B8BEDE0F2E0B0
:1057E00090E080E0AB89BC890D911D912D913D9198
:1057F000BC8BAB8B8D849E84AF84B8880821192123
:105800002A213B21012B022B032B89F1DC01A25C15
:10581000BD4F0081118122813381098004C03695FA
:105820002795179507950A94D2F79801220F331FF1
:1058300022702F5F2C93DC01A95FBD4F2C912111A9
:1058400016C08330910509F4FCC60CF0D4C6813033
:10585000910509F4E0C68230910509F4E5C640934C
:105860009D0550939E0560939F057093A00501963A
:1058700034968630910509F0B5CF8091050290915C
:105880000602992309F4F7C6882331F01092050225
:1058900080E090E20E942322809103029091040212
:1058A000992309F4F0C6882331F0109203028FEF98
:1058B0009FE70E94232280910202882319F18091A0
:1058C0000002909101029C012F5F3F4F3093010233
:1058D0002093000220910501309106018217930761
:1058E00088F010920102109200028091FF01811154
:1058F000D2C6809103019091040101979093040115
:10590000809303010E94941D9090FB01992021F146
:105910008091F5019091F6019C012F5F3F4F3093EC
:10592000F6012093F50120910301309104018217C3
:10593000930790F01092F6011092F50181E090E04B
:105940002091F3013091F401232B11F090E080E0DD
:105950009093F4018093F3018DE995E00E944F212B
:1059600020913E02082F020350011124BA82A9821D
:10597000B092F201A092F1018AE895E00E944F21D5
:1059800020913F02182F120350011124B092F00110
:10599000A092EF0187E795E00E944F21009140021D
:1059A000282F200360011124D092EE01C092ED0156
:1059B00084E695E00E944F2100914102382F300388
:1059C00070011124F092EC01E092EB0181E595E089
:1059D0000E944F2100914302482F4003800111246F
:1059E0001093EA010093E9018091020281110EC037
:1059F0008EE395E00E944F2120914202582F5203DE
:105A0000C00111249093E8018093E701992081F06F
:105A1000209131052A5F8091F3019091F40102C039
:105A2000880F991F2A95E2F79093E6018093E5018C
:105A30008091010190910201009709F03BC6898095
:105A40009A808A0C9B1C8C0C9D1C8E0C9F1C800EBB
:105A5000911E0091E7011091E801080D191DA09019
:105A6000E501B090E6010A0D1B1D1093E4010093BF
:105A7000E30180910602811104C080910402882311
:105A800071F08091E3019091E401880F991F880FD4
:105A9000991F959587959093E4018093E3018091F8
:105AA000F801882361F03090E301212CC101880FB7
:105AB000892F881F990B9093E4018093E3018091D3
:105AC000F701882359F08091E3019091E4019595C5
:105AD000879599279093E4018093E30120912A050B
